:100000000C9434000C9449000C9449000C94490061
:100010000C9449000C9449000C9449000C9449003C
:100020000C9449000C9449000C9449000C9449002C
:100030000C9449000C9449000C9449000C9449001C
:100040000C9449000C9449000C9449000C9449000C
:100050000C9449000C9449000C9449000C944900FC
:100060000C9449000C94490011241FBECFEFD8E036
:10007000DEBFCDBF11E0A0E0B1E0E8E5F1E002C0F5
:1000800005900D92A830B107D9F70E944B000C944F
:10009000AA000C940000CF93DF93CDB7DEB728976A
:1000A0000FB6F894DEBF0FBECDBF88E0E0E0F1E010
:1000B000DE01119601900D928A95E1F78FEF8AB9D2
:1000C00014B81BB82FEF31EE44E0215030404040CF
:1000D000E1F700C0000080E090E08930910568F011
:1000E0001BB88FEF91EE24E0815090402040E1F763
:1000F00000C0000080E090E0F0CF189914C0189B79
:10010000FECFE1E0F0E0EC0FFD1FE80FF91F2081CA
:100110002BB901963FEF41EE24E0315040402040A2
:10012000E1F700C000001999D8CF199BFECF0197C5
:10013000E1E0F0E0EC0FFD1FE80FF91F20812BB983
:100140003FEF41EE24E0315040402040E1F700C055
:080150000000C3CFF894FFCFBB
:080158000103070F1F3F7FFFA9
:00000001FF
