:100000000C945A000C9464000C9464000C946400EA
:100010000C9464000C9464000C9464000C946400D0
:100020000C9464000C9464000C9464000C946400C0
:100030000C9464000C9464000C9464000C946400B0
:100040000C9464000C9464000C9464000C946400A0
:100050000C9464000C9464000C9464000C94640090
:100060000C9464000C9464000C9464000C94640080
:100070000C9464000C9464000C9464000C94640070
:100080000C9464000C9464000C9464000C94640060
:100090000C9464000C9464000C9464000C94640050
:1000A0000C9464000C9464000C9464000C94640040
:1000B0000C94640011241FBECFEFD8E0DEBFCDBF8B
:1000C0000E9466000C9480000C94000080E48AB9C1
:1000D00014B88BB11BB881E884BD81E085BD8FE782
:1000E00087BD189905C0189BFECF87B5835F87BD74
:1000F0001999F7CF199BFECF87B58D5087BDF1CFEA
:04010000F894FFCFA1
:00000001FF
