:100000000C9434000C943E000C943E000C943E0082
:100010000C943E000C943E000C943E000C943E0068
:100020000C943E000C943E000C943E000C943E0058
:100030000C943E000C943E000C943E000C943E0048
:100040000C943E000C943E000C943E000C943E0038
:100050000C943E000C943E000C943E000C943E0028
:100060000C943E000C943E0011241FBECFEFD8E04C
:10007000DEBFCDBF0E9440000C9466000C940000CF
:1000800084E08AB91BB82FEF81EE94E021508040C4
:100090009040E1F700C000004F990DC04F9BFECF8C
:1000A00084E08BB92FEF83E294EF215080409040A1
:1000B000E1F700C000001BB82FEF81EE94E0215063
:1000C00080409040E1F700C00000E6CFF894FFCFF9
:00000001FF
