:100000000C946A000C9474000C9474000C947400AA
:100010000C9474000C9474000C9474000C94740090
:100020000C9474000C9474000C9474000C94740080
:100030000C9474000C9474000C9474000C94740070
:100040000C9474000C9474000C9474000C94740060
:100050000C9474000C9474000C9474000C94740050
:100060000C9474000C9474000C9474000C94740040
:100070000C9474000C9474000C9474000C94740030
:100080000C9474000C9474000C9474000C94740020
:100090000C9474000C9474000C9474000C94740010
:1000A0000C9474000C9474000C9474000C94740000
:1000B0000C9474001101140117011A011D01200193
:1000C0002301260129012C012F01320135013801BC
:1000D0003A013D0111241FBECFEFD8E0DEBFCDBFF6
:1000E0000E94EA000C944F010C9400008FEE8BB933
:1000F00085E38A95F1F7000089B18F70873049F068
:100100008B3051F08D3059F08E3061F02FEF30E0B0
:100110000BC024E030E008C023E030E005C022E05E
:1001200030E002C021E030E08FED8BB985E38A95A5
:10013000F1F7000099B19F70973039F09B3041F092
:100140009D3049F09E3061F409C028E030E008C0DD
:1001500027E030E005C026E030E002C025E030E0D6
:100160008FEB8BB985E38A95F1F7000099B19F7009
:10017000973039F09B3041F09D3049F09E3061F46A
:1001800009C02CE030E008C02BE030E005C02AE0D8
:1001900030E002C029E030E08FE78BB985E38A9533
:1001A000F1F7000099B19F70973039F09B3041F022
:1001B0009D3049F09E3061F409C020E130E008C074
:1001C0002FE030E005C02EE030E002C02DE030E04E
:1001D000C90108958FE084B990EF9AB92FEF31EEFD
:1001E00094E0215030409040E1F700C0000085B914
:1001F0008FEF8BB92FEF35EA8EE0215030408040F1
:10020000E1F700C000000E9476008F3F9105D9F30E
:10021000FC013197E031F10590F5E65AFF4F0C945F
:10022000490181E085B92BC082E085B928C083E00F
:1002300085B925C08AE085B922C084E085B91FC090
:1002400085E085B91CC086E085B919C08BE085B909
:1002500016C087E085B913C088E085B910C089E071
:1002600085B90DC08CE085B90AC08EE085B907C09C
:1002700015B805C08FE085B902C08DE085B99FEF44
:1002800025EA3EE0915020403040E1F700C00000F8
:10029000BACFEE0FFF1F0590F491E02D0994F8946A
:0202A000FFCF8E
:00000001FF
