:100000000C945A000C946F000C946F000C946F00C9
:100010000C946F000C946F000C946F000C946F00A4
:100020000C946F000C946F000C946F000C946F0094
:100030000C946F000C946F000C946F000C946F0084
:100040000C946F000C946F000C946F000C946F0074
:100050000C946F000C946F000C946F000C946F0064
:100060000C946F000C946F000C946F000C946F0054
:100070000C946F000C946F000C946F000C946F0044
:100080000C946F000C946F000C946F000C946F0034
:100090000C946F000C946F000C946F000C946F0024
:1000A0000C946F000C946F000C946F000C946F0014
:1000B0000C946F0011241FBECFEFD8E0DEBFCDBF80
:1000C00011E0A0E0B1E0E6E8F1E002C005900D9299
:1000D000A234B107D9F70E949C000C94C1000C9483
:1000E00000001092C00088E18093C10086E08093F8
:1000F000C2001092C50087E68093C40008958093E3
:10010000C6008091C00086FFFCCF2FEF81EE94E007
:10011000215080409040E1F700C000000895CF9347
:10012000DF93EC018881882321F00E947F002196D3
:10013000F9CFDF91CF91089582E08AB91BB80E9470
:10014000710080E091E00E948F004C9905C085E12C
:1001500091E00E948F00F9CF4D9905C080E291E0B7
:100160000E948F00F2CF4E9905C08BE291E00E9471
:100170008F00EBCF4F99E9CF86E391E00E948F008B
:06018000E4CFF894FFCF6C
:1001860054657374204C696E6520666F6C6C6F776E
:10019600696E670A004C31206973204C6F770A003C
:1001A6004C32206973204C6F770A004C33206973F8
:1001B600204C6F770A004C34206973204C6F770A05
:0201C600000037
:00000001FF
