:100000000C945A000C946F000C946F000C946F00C9
:100010000C946F000C946F000C946F000C946F00A4
:100020000C946F000C946F000C946F000C946F0094
:100030000C946F000C946F000C946F000C946F0084
:100040000C946F000C946F000C946F000C946F0074
:100050000C946F000C946F000C946F000C946F0064
:100060000C946F000C946F000C946F000C946F0054
:100070000C946F000C946F000C946F000C946F0044
:100080000C946F000C946F000C946F000C946F0034
:100090000C946F000C946F000C946F000C946F0024
:1000A0000C946F000C946F000C946F000C946F0014
:1000B0000C946F0011241FBECFEFD8E0DEBFCDBF80
:1000C00011E0A0E0B1E0E2EAF2E002C005900D929A
:1000D000A632B107D9F70E9401010C944F010C948C
:1000E00000001092C00088E18093C10086E08093F8
:1000F000C2001092C50087E68093C40008958091E5
:10010000C0008823E4F78091C60008958093C6005C
:100110008091C00086FFFCCF2FEF81EE94E021504C
:1001200080409040E1F700C000000895CF93DF9336
:10013000EC018881882321F00E9486002196F9CF66
:10014000DF91CF910895982F907F9BB922E025B938
:100150003FEF41EE94E0315040409040E1F700C065
:10016000000015B830E1839FC00111248BB925B977
:100170004FEF81EE94E0415080409040E1F700C0A5
:10018000000015B80895982F907F9BB93AE035B9D3
:100190002FEF41EE94E0215040409040E1F700C045
:1001A000000028E025B940E1849FC00111248BB9EB
:1001B00035B98FEF91EE34E0815090403040E1F757
:1001C00000C0000025B90895CF93DF93EC0188812A
:1001D000882321F00E94C3002196F9CFDF91CF91AF
:1001E000089582E00E94A30088E20E94A3008EE0AE
:1001F0000E94A30081E00E94A30080E80E94A30067
:100200000895CF93DF93CDB7DEB760970FB6F8941C
:10021000DEBF0FBECDBF8FE084B982EF8AB915B8BB
:100220001BB80E94710080E091E00E9496000E943D
:10023000F10088E191E00E94E40080EC0E94A300BC
:10024000E12CF12C0E947F008A30F1F400E010E0F4
:10025000E016F10664F0E1E0F0E0EC0FFD1FE00FC6
:10026000F11F80810E9486000F5F1F4FF1CF8AE04F
:100270000E948600CE0101960E94E40080EC0E945C
:10028000A300E12CF12CDECFE1E0F0E0EC0FFD1F4C
:10029000EE0DFF1D80838FEFE81AF80AD3CFF89494
:0202A000FFCF8E
:1002A2005465737420746F205043205365726961E2
:1002B2006C200A200D2000005465737420746F2096
:0602C2004C43443A000029
:00000001FF
