:100000000C9434000C943E000C943E000C943E0082
:100010000C943E000C943E000C943E000C943E0068
:100020000C943E000C943E000C943E000C943E0058
:100030000C943E000C943E000C943E000C943E0048
:100040000C943E000C943E000C943E000C943E0038
:100050000C943E000C943E000C943E000C943E0028
:100060000C943E000C943E0011241FBECFEFD8E04C
:10007000DEBFCDBF0E9450000C9470000C940000B5
:100080008093C6008091C00086FFFCCF2FEF81EEE9
:1000900094E0215080409040E1F700C000000895B6
:1000A00082E08AB91BB81092C00088E18093C10039
:1000B00086E08093C2001092C50087E68093C4005A
:1000C00088E40E94400085E40E9440008CE40E9485
:1000D00040008CE40E9440008FE40E944000FFCF6B
:0400E000F894FFCFC2
:00000001FF
