:100000000C9434000C9449000C9449000C94490061
:100010000C9449000C9449000C9449000C9449003C
:100020000C9449000C9449000C9449000C9449002C
:100030000C9449000C9449000C9449000C9449001C
:100040000C9449000C9449000C9449000C9449000C
:100050000C9449000C9449000C9449000C944900FC
:100060000C9449000C94490011241FBECFEFD8E036
:10007000DEBFCDBF11E0A0E0B1E0EEEFF0E002C0E6
:1000800005900D92A831B107D9F70E9468000C9431
:100090007D000C9400008093C6008091C00086FF14
:1000A000FCCF2FEF81EE94E0215080409040E1F7AB
:1000B00000C000000895CF93DF93EC01888188236E
:1000C00021F00E944B002196F9CFDF91CF91089546
:1000D00082E08AB91BB81092C00088E18093C10009
:1000E00086E08093C2001092C50087E68093C4002A
:0E00F00080E091E00E945B00FFCFF894FFCF0C
:1000FE004E69636520746F204D65657420796F7548
:08010E00200A200D2000000072
:00000001FF
