:100000000C945A000C946F000C946F000C946F00C9
:100010000C946F000C946F000C946F000C946F00A4
:100020000C946F000C946F000C946F000C946F0094
:100030000C946F000C946F000C946F000C946F0084
:100040000C946F000C946F000C946F000C946F0074
:100050000C946F000C946F000C946F000C946F0064
:100060000C946F000C946F000C946F000C946F0054
:100070000C946F000C946F000C946F000C946F0044
:100080000C946F000C946F000C946F000C946F0034
:100090000C946F000C946F000C946F000C946F0024
:1000A0000C946F000C946F000C946F000C946F0014
:1000B0000C946F0011241FBECFEFD8E0DEBFCDBF80
:1000C00011E0A0E0B1E0EAE1F3E002C005900D929A
:1000D000AA34B107D9F70E9451010C948B010C94FA
:1000E00000001092C00088E18093C10086E08093F8
:1000F000C2001092C50087E68093C40008958093E3
:10010000C6008091C00086FFFCCF2FEF81EE94E007
:10011000215080409040E1F700C000000895CF9347
:10012000DF93EC018881882321F00E947F002196D3
:10013000F9CFDF91CF91089580E680937C0087E826
:1001400080937A0008959C01275F3109273031059B
:1001500028F480E091E00E948F0008959C012C57C4
:1001600031092530310528F484E091E00E948F00A8
:1001700008959C01205531092730310528F488E085
:1001800091E00E948F0008959C0129533109263087
:10019000310528F48CE091E00E948F0008959C01C5
:1001A000215231402830310528F480E191E00E944D
:1001B0008F0008959C01255831092630310528F417
:1001C00084E191E00E948F0008959C012755310938
:1001D0002430310528F488E191E00E948F000895D1
:1001E0009C01205431092430310528F48CE191E040
:1001F0000E948F0008959C012A5931402D3031050D
:1002000028F480E291E00E948F0008959C012D590E
:1002100031092530310528F484E291E00E948F00F5
:1002200008959C01205631092530310528F488E2D3
:1002300091E00E948F0008959C01245431092530DB
:10024000310528F48CE291E00E948F0008959C0112
:100250002C5032402D30310528F480E391E00E948B
:100260008F0008959C01295A31092930310528F45D
:1002700084E391E00E948F0008959C012856310983
:100280002630310528F488E391E00E948F0008951C
:1002900089549109049720F48CE391E00E948F0027
:1002A000089582E08AB91BB817B818B80E949C005C
:1002B0000E94710080E491E00E948F00EAE7F0E084
:1002C00080818064808380917A0086FDFCCF80915C
:1002D000780090E09C01022E232F000C221F330B8C
:1002E000000C221F331F90917900892F90E0880F16
:1002F000991F880F991F822B932B009711F00E9452
:10030000A3002FEF89EC98E0215080409040E1F766
:0A03100000C00000D3CFF894FFCF27
:10031A00310D0A00320D0A00330D0A00410D0A00A0
:10032A00340D0A00350D0A00360D0A00420D0A0086
:10033A00370D0A00380D0A00390D0A00430D0A006C
:10034A002A0D0A00300D0A00230D0A00440D0A0086
:0A035A005445535420414443000071
:00000001FF
