:100000000C9434000C943E000C943E000C943E0082
:100010000C943E000C943E000C943E000C943E0068
:100020000C943E000C943E000C943E000C943E0058
:100030000C943E000C943E000C943E000C943E0048
:100040000C943E000C943E000C943E000C943E0038
:100050000C943E000C943E000C943E000C943E0028
:100060000C943E000C943E0011241FBECFEFD8E04C
:10007000DEBFCDBF0E9440000C9499000C9400009C
:1000800088E18AB92FEF31EE44E021503040404002
:10009000E1F700C0000080E18BB98FEF91EE24E022
:1000A000815090402040E1F700C0000080E090E0E7
:1000B00084319105C4F428E12BB93FEF49E628E1EA
:1000C000315040402040E1F700C0000020E12BB952
:1000D0003FEF49E628E1315040402040E1F700C0C1
:1000E00000000196E5CF1BB83FEF41EE84E03150B0
:1000F00040408040E1F700C0000080E090E08431A3
:1001000091054CF628E02BB92FEF39E648E1215054
:1001100030404040E1F700C000001BB82FEF39E647
:1001200048E1215030404040E1F700C00000019616
:06013000E6CFF894FFCFBA
:00000001FF
