:100000000C945A000C9464000C9464000C946400EA
:100010000C9464000C9464000C9464000C946400D0
:100020000C9464000C9464000C9464000C946400C0
:100030000C9464000C9464000C9464000C946400B0
:100040000C9464000C9464000C9464000C946400A0
:100050000C9464000C9464000C9464000C94640090
:100060000C9464000C9464000C9464000C94640080
:100070000C9464000C9464000C9464000C94640070
:100080000C9464000C9464000C9464000C94640060
:100090000C9464000C9464000C9464000C94640050
:1000A0000C9464000C9464000C9464000C94640040
:1000B0000C94640011241FBECFEFD8E0DEBFCDBF8B
:1000C0000E941D010C9429010C94000085B990E058
:1000D000082E892F000C881F990B000C881F991F70
:1000E000837080628BB92FEF81EE94E021508040C5
:1000F0009040E1F700C000001BB8089585B990E07A
:10010000082E892F000C881F990B000C881F991F3F
:100110008370806A8BB92FEF81EE94E0215080408C
:100120009040E1F700C0000080E88BB9089588E3B3
:100130000E94660080E80E94660081E00E946600DE
:100140008EE00E94660086E00E946600089588E4C2
:100150000E94660080E00E947E008AE00E947E008D
:1001600085E10E947E0081E10E947E0082E10E9482
:100170007E0084E00E947E0080E00E947E0080E09D
:100180000E947E0080E80E94660081E00E947E005E
:100190008FE39CE90197F1F700C0000080E50E9421
:1001A000660080E00E947E0080E00E947E008AE07F
:1001B0000E947E0080E00E947E0084E00E947E001B
:1001C00080E00E947E008EE00E947E0081E10E941D
:1001D0007E0082E80E94660082E00E947E008FE33B
:1001E0009CE90197F1F700C0000088E50E946600D5
:1001F00081E00E947E0083E00E947E0085E00E94F4
:100200007E0089E00E947E0089E00E947E008BE0F3
:100210000E947E008BE10E947E0088E10E947E00A9
:1002200084E80E94660083E00E947E008FE39CE9E0
:100230000197F1F700C0000008958FE384B98BEFB8
:100240008AB915B888E18BB90E9497000E94A7006F
:06025000FFCFF894FFCF80
:00000001FF
