:100000000C945A000C9464000C9464000C946400EA
:100010000C9464000C9464000C9464000C946400D0
:100020000C9464000C9464000C9464000C946600BE
:100030000C9477000C9464000C9464000C9464009D
:100040000C9464000C9464000C9464000C946400A0
:100050000C9464000C9464000C9464000C94640090
:100060000C9464000C9464000C9464000C94640080
:100070000C9464000C9464000C9464000C94640070
:100080000C9464000C9464000C9464000C94640060
:100090000C9464000C9464000C9464000C94640050
:1000A0000C9464000C9464000C9464000C94640040
:1000B0000C94640011241FBECFEFD8E0DEBFCDBF8B
:1000C0000E948B000C94A5000C9400001F920F92CC
:1000D0000FB60F9211248F938BB180588BB982E0A9
:1000E00086BB8F910F900FBE0F901F9018951F9297
:1000F0000F920FB60F9211248F939F939BB180E4C0
:1001000089278BB984E086BB9F918F910F900FBE9A
:100110000F901F90189580EF8AB980E5809380003A
:1001200089E08093810086E080936F0016BA80E1B9
:1001300097E2909389008093880088E893E19093F8
:0E0140008B0080938A007894FFCFF894FFCF55
:00000001FF
