:100000000C945A000C946F000C946F000C946F00C9
:100010000C946F000C946F000C946F000C946F00A4
:100020000C946F000C946F000C946F000C946F0094
:100030000C946F000C946F000C946F000C946F0084
:100040000C946F000C946F000C946F000C946F0074
:100050000C946F000C946F000C946F000C946F0064
:100060000C946F000C946F000C946F000C946F0054
:100070000C946F000C946F000C946F000C946F0044
:100080000C946F000C946F000C946F000C946F0034
:100090000C946F000C946F000C946F000C946F0024
:1000A0000C946F000C946F000C946F000C946F0014
:1000B0000C946F0011241FBECFEFD8E0DEBFCDBF80
:1000C00011E0A0E0B1E0E8EAF6E002C005900D9290
:1000D000A831B107D9F70E94CF000C9452030C94B9
:1000E0000000982F907F9BB922E025B93FEF41EEA9
:1000F00094E0315040409040E1F700C0000015B856
:1001000030E1839FC00111248BB925B94FEF81EEF7
:1001100094E0415080409040E1F700C0000015B8E5
:100120000895982F907F9BB93AE035B92FEF41EEB3
:1001300094E0215040409040E1F700C0000028E0EA
:1001400025B940E1849FC00111248BB935B98FEFE7
:1001500091EE34E0815090403040E1F700C0000063
:1001600025B90895CF93DF93EC018881882321F08E
:100170000E9491002196F9CFDF91CF91089582E0FE
:100180000E94710088E20E9471008EE00E9471005E
:1001900081E00E94710080E80E94710008958FE064
:1001A00084B980EF8AB917B815B81BB818B880E6BB
:1001B00080937C0087E880937A000E94BF00EAE782
:1001C000F0E080818064808380917A0086FDFCCF9E
:1001D000C0917800D0E00C2ECD2F000CCC1FDD0B91
:1001E000000CCC1FDD1F8091790090E0880F991FD3
:1001F000880F991FC82BD92BBE01660F771F660F7A
:10020000771F6C0F7D1F072E000C880B990B0E9427
:10021000310220E030EC4FE754E40E94870120E0F7
:1002200030E04AE754E40E94BD020E94F9017B01DC
:1002300080E091E00E94B2000F2EF8EEAF2EF3E0C6
:10024000BF2EF02DCE01B5010E942A0380E3860F58
:100250000E9491000F2EF4E6CF2ED12CF02DCE016E
:10026000B6010E942A03CB010AE010E0B8010E9407
:100270002A03805D0E949100CE01B8010E942A03EA
:10028000C82FCB01B8010E942A03805D0E94910013
:1002900080E38C0F0E94910080E80E94710080EC46
:1002A0000E9471008AE091E00E94B200C701B5018E
:1002B0000E942A0380E3860F0E9491008EE20E9432
:1002C0009100C701B6010E942A03CB01B8010E9428
:1002D0002A03805D0E949100C701B8010E942A0391
:1002E000C82FCB01B8010E942A03805D0E949100B3
:1002F00080E38C0F0E94910082E191E00E94B200A5
:1003000080EC0E94710080E80E94710058CF0E942A
:100310009B010C9483020E947C0258F00E9475029B
:1003200040F029F45F3F29F00C946C0251110C94B9
:10033000B7020C9472020E94940268F39923B1F3FD
:10034000552391F3951B550BBB27AA2762177307FB
:10035000840738F09F5F5F4F220F331F441FAA1F8F
:10036000A9F335D00E2E3AF0E0E832D0915050404B
:10037000E695001CCAF72BD0FE2F29D0660F771FF9
:10038000881FBB1F261737074807AB07B0E809F0DF
:10039000BB0B802DBF01FF2793585F4F3AF09E3F64
:1003A000510578F00C946C020C94B7025F3FE4F3B3
:1003B000983ED4F3869577956795B795F7959F5FA7
:1003C000C9F7880F911D9695879597F90895E1E0F3
:1003D000660F771F881FBB1F621773078407BA0752
:1003E00020F0621B730B840BBA0BEE1F88F7E095AD
:1003F00008950E9400026894B1110C94B702089508
:100400000E949C0288F09F5798F0B92F9927B75106
:10041000B0F0E1F0660F771F881F991F1AF0BA95A8
:10042000C9F714C0B13091F00E94B602B1E008954E
:100430000C94B602672F782F8827B85F39F0B93F40
:10044000CCF3869577956795B395D9F73EF490955B
:100450008095709561957F4F8F4F9F4F0895E894D9
:1004600009C097FB3EF490958095709561957F4FFC
:100470008F4F9F4F9923A9F0F92F96E9BB279395AA
:10048000F695879577956795B795F111F8CFFAF4BA
:10049000BB0F11F460FF1BC06F5F7F4F8F4F9F4FEB
:1004A00016C0882311F096E911C0772321F09EE849
:1004B000872F762F05C0662371F096E8862F70E0AF
:1004C00060E02AF09A95660F771F881FDAF7880F89
:1004D0009695879597F9089597F99F6780E870E05A
:1004E00060E008959FEF80EC089500240A941616AA
:1004F000170618060906089500240A941216130612
:10050000140605060895092E0394000C11F488239F
:1005100052F0BB0F40F4BF2B11F460FF04C06F5FBB
:100520007F4F8F4F9F4F089557FD9058440F551F91
:1005300059F05F3F71F04795880F97FB991F61F065
:100540009F3F79F087950895121613061406551FDC
:10055000F2CF4695F1DF08C0161617061806991F48
:10056000F1CF86957105610508940895E894BB273D
:1005700066277727CB0197F908950E94D0020C9443
:1005800083020E94750238F00E947C0220F09523BD
:1005900011F00C946C020C94720211240C94B702AA
:1005A0000E94940270F3959FC1F3950F50E0551F80
:1005B000629FF001729FBB27F00DB11D639FAA27B8
:1005C000F00DB11DAA1F649F6627B00DA11D661F07
:1005D000829F2227B00DA11D621F739FB00DA11D28
:1005E000621F839FA00D611D221F749F3327A00DE2
:1005F000611D231F849F600D211D822F762F6A2F7E
:1006000011249F5750409AF0F1F088234AF0EE0FE2
:10061000FF1FBB1F661F771F881F91505040A9F70F
:100620009E3F510580F00C946C020C94B7025F3F22
:10063000E4F3983ED4F3869577956795B795F7954B
:10064000E7959F5FC1F7FE2B880F911D96958795C3
:1006500097F9089597FB072E16F4009407D077FDBD
:1006600009D00E943E0307FC05D03EF49095819589
:100670009F4F0895709561957F4F0895AA1BBB1BEE
:1006800051E107C0AA1FBB1FA617B70710F0A61B92
:10069000B70B881F991F5A95A9F780959095BC01B3
:0806A000CD010895F894FFCF8D
:1006A800526177204F75743A2000566F6C74733A14
:0806B800200020562020000064
:00000001FF
