:100000000C9434000C943E000C943E000C943E0082
:100010000C943E000C943E000C943E000C943E0068
:100020000C943E000C943E000C943E000C943E0058
:100030000C943E000C943E000C943E000C943E0048
:100040000C943E000C943E000C943E000C943E0038
:100050000C943E000C943E000C943E000C943E0028
:100060000C943E000C943E0011241FBECFEFD8E04C
:10007000DEBFCDBF0E9440000C9479000C940000BC
:100080008FEF8AB914B81BB881E08BB92FEF41EE1E
:1000900084E0215040408040E1F700C0000021E0B2
:1000A00030E0283031057CF48BB1880F8BB99FEF9D
:1000B00041EE84E0915040408040E1F700C00000F4
:1000C0002F5F3F4FEECF21E030E0283031053CF785
:1000D0008BB190E0959587958BB99FEF41EE84E0C9
:1000E000915040408040E1F700C000002F5F3F4F3B
:0600F000ECCFF894FFCFF5
:00000001FF
